:1000000065EF02F00000000000EF00F000000000CB
:0A0010000000000000000000F3D71C
:0E001C00C70E0D6E0D2EFED700000000120064
:10002A00560E0C6EB50E0D6E0D2EFED70C2EFCD78D
:06003A00000000001200AE
:0E004000030E0D6E0D2EFED700000000120004
:10004E0001016DBF02D0839E01D0838E6DBD02D0A3
:10005E00839C01D0838C6DBB02D0839A01D0838A9E
:10006E006DB902D0839801D0838854B102D08280BA
:10007E0001D082908282DDDF82926DB702D0839EA4
:10008E0001D0838E6DB502D0839C01D0838C6DB36D
:10009E0002D0839A01D0838A6DB102D0839801D0A9
:1000AE00838854B102D0828001D082908282C1DFD7
:0E00BE00829254A102D0B2DF01D0A9DF12005D
:0E00CC00ACB202D00000FCD76CC1ADFF120038
:0E00DA00010154916CC16DF1B5DF548112002B
:1000E800080E0C6EC10E0D6E0D2EFED70C2EFCD711
:0600F800000000001200F0
:1000FE0001016A6B6A516825E96E000E6921EA6E8C
:10010E00EE520BE06A516825E96E000E6921EA6E27
:0C011E00EECF6CF1DBDF6A2BEDD7120096
:10012A0001016B6B68C1E9FF69C1EAFFEECF6AF1B1
:10013A006A51000A0EE06AC16CF1C3DF01016B2B40
:10014A006B516825E96E000E6921EA6EEECF6AF1FD
:04015A00EFD71200C9
:10015E00CC0E0101506F000E516F6C0E526F010EDE
:10016E00536FFF0E556FFF0E566F000E576F000E3A
:10017E00586FFF0E5D6FFF0E5E6F000E5F6F000E0D
:10018E00606FFF0E596FFF0E5A6F000E5B6F000E01
:10019E005C6FAC8A900EAB6E948E949C9EAA03D02C
:0801AE00AECF00F0FBD71200F8
:1001B6008C82016A026A800E0218006E800E005C54
:1001C60002E1C80E015C17E28C80100E0C6E940ED4
:1001D6000D6E0D2EFED70C2EFCD700008C90100E47
:1001E6000C6E940E0D6E0D2EFED70C2EFCD7000055
:0A01F600014A022AE0D7DCD712000C
:100200000900F5CFE6FF0006FBE10106F9E1120067
:10021000949294909598959A959C959E82928290AE
:10022000839E839C839A839800DFFFDEFEDE838AB1
:100230008388828205DF8292F8DE828201DF8292E9
:10024000F4DE8282FDDE8292F0DE83988282F8DE26
:100250008292EBDE8282F4DE8292839A838E8282A5
:10026000EFDE8292E2DE839E83888282E9DE8292E2
:1002700083988282E5DE8292D8DE8282E1DE8292FB
:1002800083888282DDDE8292D0DE83988282D8DE0D
:100290008292838E838C838A83888282D1DE82924B
:0802A000C4DE010154811200CB
:1002A800010E01016D6FCFDE800E6D6FCCDE820E08
:1002B800686F000E696F1FDFC00E6D6FC4DE790EA8
:1002C800686F000E696F17DF0A0E6C6FFBDE0D0E8C
:1002D80001016C6FF7DE0A0E01016C6FF3DE0D0E83
:1002E80001016C6FEFDE910E0101686F000E696FFE
:1002F80018DF0A0E6C6FE6DE0D0E01016C6FE2DE90
:10030800C10E0101686F000E696F0BDF0A0E6C6F7A
:10031800D9DE0D0E01016C6FD5DEA80E0101686FE4
:08032800000E696FFEDE1200F9
:10033000010E01016D6F8BDE800E6D6F88DE1E0E6B
:10034000686F000E696FDBDEC00E6D6F80DE150E0C
:10035000686F000E696FD3DE0A0E6C6FB7DE0D0E8C
:1003600001016C6FB3DE0A0E01016C6FAFDE0D0E82
:1003700001016C6FABDE2E0E0101686F000E696F1C
:10038000D4DE0A0E6C6FA2DE0D0E01016C6F9EDED4
:10039000640E0101686F000E696FC7DE0A0E6C6F94
:1003A00095DE0D0E01016C6F91DE480E0101686F44
:0803B000000E696FBADE1200B5
:1003B8000101676B63C101F0010E006E015004E09A
:1003C80000360090FF0FFBD700C066F161C1E9FF5E
:1003D80062C1EAFF0050EE14016E0152010ED8A46A
:1003E800000E006E6551001A18E06451000804E21E
:1003F80077DE76DE6407F9D761C1E9FF62C1EAFFFB
:100408006651EE14016E0152010ED8A4000E006E62
:100418006551001A02E0FF0E676F67C100F0120015
:10042800010E01016D6F0FDE800E6D6F0CDED60EB2
:10043800686F000E696F5FDEC00E6D6F04DEFC0E24
:10044800686F000E696F57DE0A0E6C6F3BDE0D0E8B
:1004580001016C6F37DE0A0E01016C6F33DE0D0E81
:1004680001016C6F2FDEE50E0101686F000E696FE8
:1004780058DE0A0E6C6F26DE0D0E01016C6F22DE4F
:10048800060E0101686F010E696F4BDE0A0E6C6F74
:1004980019DE0D0E01016C6F15DE370E0101686F54
:1004A800010E696F3EDE0A0E6C6F0CDE0D0E010147
:1004B8006C6F08DE1B0E0101686F010E696F31DE7B
:0204C800120020
:1004CA0045EC03F00F0EC16E93809382938495904E
:1004DA00959295949596C10ED56E95DEB886040EC2
:1004EA00B06EE10EAF6EAC8435DE60DE810E0101C6
:1004FA00616F0F0E626F636B320E646F010E656F70
:10050A0056DF005201E0CBDE810E616F0F0E626F83
:10051A00010E636F320E646F010E656F48DF005281
:10052A0001E001DF810E616F0F0E626F020E636FD1
:10053A00320E646F010E656F3ADF005201E06FDF21
:04054A00D5D7FFD72B
:10068A0010EE15F03B0E006E020E016E4E0EF66E67
:0E069A00050EF76E000EF86E00EC01F0120077
:09054E002D3E203530206D6C00BB
:100557003A3A3A20414D4152454C4F203A3A3A00F7
:100567002D2D2D2D2D2D2D2D20414D4152454C4FFB
:0A057700202D2D2D2D2D2D2D2D00F2
:100581002D3E203530206D6C7320646120626562E0
:0C05910069646120616D6172656C61003D
:10059D003A3A3A20494E4752454449454E544553FF
:0505AD00203A3A3A007B
:0905B2002D3E203530206D6C0057
:0F05BB0020203A3A3A20415A554C203A3A3A0019
:1005CA002D2D2D2D2D2D2D2D20415A554C202D2DE3
:0705DA002D2D2D2D2D2D000C
:1005E1002D3E203530206D6C732064612062656280
:0905F10069646120617A756C00F7
:1005FA003A3A3A20494E4752454449454E544553A2
:05060A00203A3A3A001D
:0F060F00203A3A3A205645524445203A3A3A00AA
:10061E002D2D2D2D2D2D2D2D205645524445202D81
:07062E002D2D2D2D2D2D00B7
:0A0635002D3E203530206D6C73005F
:10063F003A3A3A20494E4752454449454E5445535C
:05064F00203A3A3A00D8
:100654002D3E203235206D6C73206461206265620A
:0C06640069646120616D6172656C610069
:100670002D3E203235206D6C7320646120626562EE
:0906800069646120617A756C0067
:020000040030CA
:0E000000000C1F1EFF8381FF0FC00FE00F409A
:00000001FF
