:100000006BEF03F00000000000EF00F000000000C4
:0A0010000000000000000000F3D71C
:0E001C00C70E0D6E0D2EFED700000000120064
:10002A00560E0C6EB50E0D6E0D2EFED70C2EFCD78D
:06003A00000000001200AE
:0E004000030E0D6E0D2EFED700000000120004
:10004E000101FBBF02D0839E01D0838EFBBD02D087
:10005E00839C01D0838CFBBB02D0839A01D0838A10
:10006E00FBB902D0839801D08388DEB102D08280A2
:10007E0001D082908282DDDF8292FBB702D0839E16
:10008E0001D0838EFBB502D0839C01D0838CFBB351
:10009E0002D0839A01D0838AFBB102D0839801D01B
:1000AE008388DEB102D0828001D082908282C1DF4D
:0E00BE008292DEA102D0B2DF01D0A9DF1200D3
:0E00CC00ACB202D00000FCD7FAC1ADFF1200AA
:0E00DA000101DE91FAC1FBF1B5DFDE811200FB
:1000E8000101F86BF851F625E96E000EF721EA6E6A
:1000F800EE520BE0F851F625E96E000EF721EA6E94
:0C010800EECFFAF1E6DFF82BEDD7120085
:100114000101F96BF6C1E9FFF7C1EAFFEECFF8F18F
:10012400F851000A0EE0F8C1FAF1CEDF0101F92B13
:10013400F951F625E96E000EF721EA6EEECFF8F1DB
:04014400EFD71200DF
:10014800080E0C6EC10E0D6E0D2EFED70C2EFCD7B0
:060158000000000012008F
:10015E00010E0101FB6F74DF800EFB6F71DFC90EA4
:10016E00F66F000EF76FB9DFC00EFB6F69DFC00EC2
:10017E00F66F000EF76FB1DF0A0EFA6FA0DF0D0EED
:10018E000101FA6F9CDF0A0E0101FA6F98DF0D0E66
:10019E000101FA6F94DFA60E0101F66F000EF76FE4
:1001AE00B2DF0A0EFA6F8BDF0D0E0101FA6F87DFD9
:1001BE00D90E0101F66F000EF76FA5DF0A0EFA6F6A
:1001CE007EDF0D0E0101FA6F7ADF060E0101F66F6A
:0801DE00010EF76F98DF12001B
:1001E6000101F56BF1C101F0010E006E015004E052
:1001F60000360090FF0FFBD700C0F4F1EFC1E9FF16
:10020600F0C1EAFF0050EE14016E0152010ED8A4AF
:10021600000E006EF351001A18E0F251000804E2D5
:1002260090DF8FDFF207F9D7EFC1E9FFF0C1EAFFF0
:10023600F451EE14016E0152010ED8A4000E006EA8
:10024600F351001A02E0FF0EF56FF5C100F012003F
:10025600949294909598959A959C959E8292829068
:10026600839E839C839A8398DDDEDCDEDBDE838AD5
:1002760083888282E2DE8292D5DE8282DEDE82920E
:10028600D1DE8282DADE8292CDDE83988282D5DE6C
:100296008292C8DE8282D1DE8292839A838E8282A5
:1002A600CCDE8292BFDE839E83888282C6DE829205
:1002B60083988282C2DE8292B5DE8282BEDE82921E
:1002C60083888282BADE8292ADDE83988282B5DE30
:1002D6008292838E838C838A83888282AEDE829228
:0802E600A1DE0101DE8112001E
:1002EE000900F5CFE6FF0006FBE10106F9E1120079
:1002FE00010E0101FB6FA4DE800EFB6FA1DEF70E77
:10030E00F66F000EF76FE9DEC00EFB6F99DEEE0E94
:10031E00F66F000EF76FE1DE0A0EFA6FD0DE0D0EED
:10032E000101FA6FCCDE0A0E0101FA6FC8DE0D0E66
:10033E000101FA6FC4DE8F0E0101F66F000EF76F2A
:10034E00E2DE0A0EFA6FBBDE0D0E0101FA6FB7DEAA
:10035E003F0E0101F66F000EF76FD5DE0A0EFA6F33
:10036E00AEDE0D0E0101FA6FAADE260E0101F66F4A
:08037E00000EF76FC8DE12004B
:10038600CC0E0101DF6F000EE06FFA0EE16F010E79
:10039600E26FFF0EEB6FFF0EEC6F000EED6F000EBF
:1003A600EE6FFF0EE76FFF0EE86F000EE96F000EAF
:1003B600EA6FFF0EE36FFF0EE46F000EE56F000EAF
:1003C600E66FAC8A900EAB6E948E949C9EAA03D078
:0803D600AECF00F0FBD71200CE
:1003DE008C82016A026A800E0218006E800E290A53
:1003EE00005C02E1810E015C17E28C80100E0C6E37
:1003FE00940E0D6E0D2EFED70C2EFCD700008C9099
:10040E00100E0C6E940E0D6E0D2EFED70C2EFCD70C
:0A041E000000014A022ADFD7120095
:100428008C82016A026A800E0218006E800E290A08
:10043800005C02E1810E015C17E28C80100E0C6EEC
:10044800940E0D6E0D2EFED70C2EFCD700008C904E
:10045800100E0C6E940E0D6E0D2EFED70C2EFCD7C2
:0A0468000000014A022ADFD712004B
:100472008C82016A026A800E0218006E800E530A94
:10048200005C02E1020E015C17E28C80100E0C6E21
:10049200940E0D6E0D2EFED70C2EFCD700008C9004
:1004A200100E0C6E940E0D6E0D2EFED70C2EFCD778
:0A04B2000000014A022ADFD7120001
:1004BC008C82016A026A800E0218006E800E530A4A
:1004CC00005C02E1020E015C17E28C80100E0C6ED7
:1004DC00940E0D6E0D2EFED70C2EFCD700008C90BA
:1004EC00100E0C6E940E0D6E0D2EFED70C2EFCD72E
:0A04FC000000014A022ADFD71200B7
:10050600010E0101FB6FA0DD800EFB6F9DDD150E58
:10051600F66F000EF76FE5DDC00EFB6F95DD540E2E
:10052600F66F000EF76FDDDD500E0B6E240E0C6EAF
:10053600860E0D6E0D2EFED70C2EFCD70B2EFAD77F
:100546000000010EFB6F80DD800EFB6F7DDD7E0EF1
:10055600F66F000EF76FC5DDC00EFB6F75DD700E12
:10056600F66F000EF76FBDDD500E0B6E240E0C6E8F
:10057600860E0D6E0D2EFED70C2EFCD70B2EFAD73F
:100586000000010EFB6F60DD800EFB6F5DDD5F0E10
:10059600F66F000EF76FA5DDC00EFB6F55DD220E60
:1005A600F66F010EF76F9DDD500E0B6E240E0C6E6E
:1005B600860E0D6E0D2EFED70C2EFCD70B2EFAD7FF
:1005C60000000A0EFA6F7FDD0D0E0101FA6F7BDD6A
:1005D600910E0101F66F010EF76F99DD0A0EFA6FA3
:1005E60072DD0D0E0101FA6F6EDD860E0101F66FEA
:1005F600010EF76F8CDD0A0EFA6F65DD0D0E010137
:10060600FA6F61DD780E0101F66F010EF76F7FDD7F
:100616000A0EFA6F58DD0D0E0101FA6F54DDA20EB7
:0E0626000101F66F010EF76F72DD6AD7120048
:10063400010E0101FB6F09DD800EFB6F06DDCF0E9D
:10064400F66F010EF76F4EDDC00EFB6FFEDCC50EBC
:10065400F66F010EF76F46DD0A0EFA6F35DD0D0EEB
:100664000101FA6F31DD0A0E0101FA6F2DDD0D0E65
:100674000101FA6F29DDAE0E0101F66F010EF76F6D
:1006840047DD0A0EFA6F20DD0D0E0101FA6F1CDD45
:10069400630E0101F66F010EF76F3ADD0A0EFA6F71
:1006A40013DD0D0E0101FA6F0FDD4A0E0101F66F25
:1006B400010EF76F2DDD0A0EFA6F06DD0D0E010136
:1006C400FA6F02DD2E0E0101F66F010EF76F20DDC9
:0206D400120012
:1006D60097EC04F00F0EC16E9380938293849590ED
:1006E600959295949596B4DDB886040EB06EE10E9B
:1006F600AF6EAC8445DE04DF94DE810E0101EF6F40
:100706000F0EF06FF16B320EF26F010EF36F68DDB4
:10071600005202E0F1DDAADE810E0101EF6F0F0E3D
:10072600F06F010EF16F320EF26F010EF36F58DDAE
:10073600005202E011DDBFDE810E0101EF6F0F0EE8
:10074600F06F020EF16F320EF26F010EF36F48DD9D
:0E075600005203E06CDF65DE3FDECFD7FFD739
:10092E0010EE15F0C90E006E020E016E640EF66E1C
:0E093E00070EF76E000EF86E77EC01F0120057
:100764004553434F4C484120554D204452494E4B2C
:010774000084
:100775002D3E203530206D6C7320646120626562EA
:0907850069646120617A756C0061
:10078E003A3A3A20494E4752454449454E5445530C
:05079E00203A3A3A0088
:0B07A3002D3E20313A20415A554C00F9
:1007AE004553434F4C484120554D204452494E4BE2
:0107BE00003A
:0E07BF002D3E20323A20414D4152454C4F0014
:1007CD004553434F4C484120554D204452494E4BC3
:0107DD00001B
:1007DE002D2D2D2D2D2D2D2D20415A554C202D2DCD
:0707EE002D2D2D2D2D2D00F6
:1007F5002D2D2D2D2D2D2D2D20414D4152454C4F6B
:0A080500202D2D2D2D2D2D2D2D0061
:09080F002D3E203530206D6C00F7
:100818003A3A3A20414D4152454C4F203A3A3A0033
:100828003A3A3A20494E4752454449454E54455371
:05083800203A3A3A00ED
:09083D002D3E203530206D6C00C9
:0F08460020203A3A3A20415A554C203A3A3A008B
:100855002D3E203530206D6C732064612062656209
:0C08650069646120616D6172656C610066
:0C0871002D3E20333A20564552444500ED
:10087D002D3E203235206D6C7320646120626562DF
:0C088D0069646120616D6172656C61003E
:100899002D3E203235206D6C7320646120626562C3
:0908A90069646120617A756C003C
:1008B2003A3A3A20494E4752454449454E544553E7
:0508C200203A3A3A0063
:0E08C7002D3E20323A20414D4152454C4F000B
:0B08D5002D3E20313A20415A554C00C6
:1008E0004573636F6C686120756D206472696E6B0F
:0108F0000007
:0C08F1002D3E20333A205645524445006D
:1008FD002D2D2D2D2D2D2D2D205645524445202DA0
:07090D002D2D2D2D2D2D00D5
:0A0914002D3E203530206D6C73007D
:0F091E00203A3A3A205645524445203A3A3A0098
:020000040030CA
:0E000000000C1F1EFF8381FF0FC00FE00F409A
:00000001FF
